S00D0000536C6176652E737265631C
S11300000C942A000C9447000C9447000C9447006D
S11300100C9447000C9447000C9447000C94470040
S11300200C9447000C9447000C9447000C94470030
S11300300C9447000C9447000C9447000C94470020
S11300400C9447000C9447000C9447000C94470010
S11300500C94470011241FBECFE5D8E0DEBFCDBF0E
S113006010E0A0E6B0E0E6E4F7E002C005900D92EF
S1130070AA37B107D9F720E0AAE7B0E001C01D9282
S1130080AD37B207E1F70E9449000C94A1030C9428
S113009000000E9436010E94310360E080E00E946B
S11300A0220280E690E00E94150260E081E00E9456
S11300B0220289E690E00E94150264E082E00E9438
S11300C0220280E790E00E941502C0E00DC08C2F50
S11300D090E086589F4F0E945B038FE39CE9019751
S11300E0F1F700C00000CF5FC33088F368E080E020
S11300F00E942202CAE7D0E0888190E00E9439027F
S113010066E081E00E942202898190E00E94390227
S11301106AE082E00E9422028A8190E00E94390211
S1130120D4CFCF93C82F40E063E080E00E94C402A4
S11301308FE99FE00197F1F700C0000041E062E021
S113014080E00E94C4028FE99FE00197F1F700C0AC
S113015000004C2F407150E05595479555954795B3
S1130160559547955595479560E082E00E94C402F5
S11301704C2F407250E055954795559547955595A8
S11301804795559547955595479561E082E00E94BE
S1130190C4024C2F407450E0042E452F000C441F21
S11301A0550B000C441F551F62E082E00E94C402FC
S11301B04C2F441F4427441F63E082E00E94C40282
S11301C08FE99FE00197F1F700C0000040E062E092
S11301D080E00E94C4028FE99FE00197F1F700C01C
S11301E0000041E062E080E00E94C4028FE99FE0E9
S11301F00197F1F700C000004C2F417060E082E0ED
S11302000E94C4024C2F427050E05595479561E01E
S113021082E00E94C4024C2F447050E055954795EB
S11302205595479562E082E00E94C402C8704C2F45
S113023050E055954795559547955595479563E0F5
S113024082E00E94C4028FE99FE00197F1F700C0A9
S1130250000040E062E080E00E94C4028FE99FE079
S11302600197F1F700C00000CF91089541E063E0E9
S113027080E00E94570241E062E080E00E94570261
S11302802FEF89EF90E0215080409040E1F700C0CB
S1130290000041E060E082E00E94570241E061E03A
S11302A082E00E94570241E062E082E00E9457022D
S11302B041E063E082E00E94570283E30E949100E0
S11302C082E30E94910088E20E94910086E00E94ED
S11302D091008CE00E94910081E00E9491000895B9
S11302E0CF93C82F41E063E080E00E94C4028FE90D
S11302F09FE00197F1F700C0000041E062E080E078
S11303000E94C4028FE99FE00197F1F700C000004A
S11303104C2F407150E05595479555954795559507
S113032047955595479560E082E00E94C4024C2FA2
S1130330407250E055954795559547955595479585
S1130340559547955595479561E082E00E94C40212
S11303504C2F407450E0042E452F000C441F550BC5
S1130360000C441F551F62E082E00E94C4024C2F1F
S1130370441F4427441F63E082E00E94C4028FE9C3
S11303809FE00197F1F700C0000040E062E080E0E8
S11303900E94C4028FE99FE00197F1F700C00000BA
S11303A041E062E080E00E94C4028FE99FE001978F
S11303B0F1F700C000004C2F417060E082E00E9421
S11303C0C4024C2F427050E05595479561E082E09D
S11303D00E94C4024C2F447050E0559547955595A2
S11303E0479562E082E00E94C402C8704C2F50E03E
S11303F055954795559547955595479563E082E002
S11304000E94C4028FE99FE00197F1F700C0000049
S113041040E062E080E00E94C4028FE99FE001971F
S1130420F1F700C00000CF910895CF93DF93EC0162
S113043003C00E947001219688818111FACFDF9157
S1130440CF910895813031F070F0823031F08330F3
S113045039F00AC090E4960F07C090E1960F04C0EB
S113046090E5960F01C0962F892F80680E94910015
S11304700895CF93DF93CDB7DEB760970FB6F894A6
S1130480DEBF0FBECDBF4AE050E0BE016F5F7F4FBD
S11304900E946103CE0101960E94150260960FB678
S11304A0F894DEBF0FBECDBFDF91CF9108958130A8
S11304B001F130F08230B1F1833009F44CC0089579
S11304C0413059F42AB381E090E002C0880F991FAB
S11304D06A95E2F7822B8ABB08952AB381E090E003
S11304E002C0880F991F6A95E2F7809582238ABB20
S11304F00895413059F427B381E090E002C0880F99
S1130500991F6A95E2F7822B87BB089527B381E090
S113051090E002C0880F991F6A95E2F780958223C4
S113052087BB0895413059F424B381E090E002C0C0
S1130530880F991F6A95E2F7822B84BB089524B330
S113054081E090E002C0880F991F6A95E2F78095D8
S1130550822384BB0895413059F421B381E090E0B3
S113056002C0880F991F6A95E2F7822B81BB089518
S113057021B381E090E002C0880F991F6A95E2F7E9
S11305808095822381BB0895813001F130F082305F
S1130590B1F1833009F44CC00895413059F42BB3C0
S11305A081E090E002C0880F991F6A95E2F7822BE0
S11305B08BBB08952BB381E090E002C0880F991F94
S11305C06A95E2F7809582238BBB0895413059F4F4
S11305D028B381E090E002C0880F991F6A95E2F782
S11305E0822B88BB089528B381E090E002C0880F75
S11305F0991F6A95E2F78095822388BB089541305C
S113060059F425B381E090E002C0880F991F6A95E0
S1130610E2F7822B85BB089525B381E090E002C008
S1130620880F991F6A95E2F78095822385BB089508
S1130630413059F422B381E090E002C0880F991F41
S11306406A95E2F7822B82BB089522B381E090E0A1
S113065002C0880F991F6A95E2F78095822382BBB6
S1130660089540E064E081E00E94570240E065E0C4
S113067081E00E94570241E066E081E00E94570257
S113068040E067E081E00E9457028DB180628DB93D
S11306908DB18F7E8DB98DB1877F8DB98DB18B7FF3
S11306A08DB98DB181608DB98EB18E7F8EB98DB1CA
S11306B080648DB90895779BFECF2FB1FC01208310
S11306C008954532510520F4423010F00C946C0327
S11306D0FB011082CB010895BB274A3031F49923E2
S11306E022F4BDE2909581959F4F0C947803BB272B
S11306F0FB015527AA27880F991FAA1FA41710F0DA
S1130700A41B83955051B9F7A05DAA3308F0A95DE5
S1130710A193009779F7B111B1931192CB010C9485
S11307209103DC01FC01672F71917723E1F7329784
S113073004C07C916D9370836291AE17BF07C8F3B8
S10907400895F894FFCFB8
S1130746464C414D453A2020004741533A2020006B
S10D075654454D503A202020430082
S9030000FC
