:100000000C942A000C94A3050C94CA050C94F105D9
:100010000C9447000C9447000C9447000C94470044
:100020000C9447000C9447000C9488060C946106CD
:100030000C9447000C94DE060C9447000C94470087
:100040000C9447000C9447000C9447000C94470014
:100050000C94470011241FBECFE5D8E0DEBFCDBF12
:1000600010E0A0E6B0E0E0EFFEE002C005900D92E7
:10007000A639B107D9F720E0A6E9B0E001C01D928A
:10008000A93AB207E1F70E94AC000C9476070C94F1
:100090000000CF93DF931F92CDB7DEB7CE0101965C
:1000A0000E94D50689810E94CE0689818F3649F447
:1000B00065E083E00E94770366E083E00E947703B7
:1000C00008C065E083E00E947B0366E083E00E9455
:1000D0007B030F90DF91CF91089560919B00709109
:1000E0009C0081E00E94ED03E0919B00F0919C0058
:1000F00020813181A8E8B3E10E94270720E038E29F
:1001000040E050E00E94050730939A002093990048
:10011000209398002F31310528F066E082E00E949C
:100120007703089566E082E00E947B030895CF93F1
:10013000C0E00EC0EC2FF0E0EA56FF4F80810E9435
:1001400046068FE39CE90197F1F700C00000CF5FFE
:10015000C33080F3CF91089541E063E081E00E94D5
:10016000FF0340E067E082E00E94FF0341E067E0B8
:1001700082E00E946C0440E062E083E00E94FF03A2
:1001800041E062E083E00E946C0440E061E080E0D6
:100190000E94FF0341E061E080E00E946C0440E0C7
:1001A00062E081E00E94FF0341E062E081E00E94A2
:1001B0006C0467E083E00E94730364E083E00E94C4
:1001C000730365E083E00E94730366E083E00E94AE
:1001D000730366E082E00E9473030E94BF030E94E3
:1001E00052020E94480689E490E00E94D90680E805
:1001F00095E20E94AF060E941C060E947F0360E009
:1002000080E00E94940360E080E00E943E0380E66C
:1002100090E00E94310360E081E00E943E0389E6A5
:1002200090E00E94310364E083E00E943E0380E797
:1002300090E00E9431036DE670E080E00E948E0540
:1002400060E080E00E94170567E970E082E00E94AC
:100250008E0562E082E00E9417050E94180662E0A7
:1002600083E00E94D904D82F80939600811114C096
:1002700066E082E00E94770364E083E00E947B03F3
:1002800067E083E00E94770368E080E00E943E031D
:100290008AE790E00E943103D13041F468E080E0C9
:1002A0000E943E0383E890E00E94310367E082E011
:1002B0000E94D904182F80939700811123C066E013
:1002C00081E00E943E038AE790E00E94310366E0ED
:1002D00082E00E94770364E083E00E947B0367E092
:1002E00083E00E947703C0E00BC06C2F82E00E9485
:1002F00094038FE19EE40197F1F700C00000CB5F0B
:10030000CF3F99F7113061F460E080E00E949403E0
:1003100066E081E00E943E038CE890E00E94310399
:100320006AE083E00E943E038091990090919A00D8
:100330000E945503D13009F092CF113009F08FCFD0
:1003400066E082E00E947B0364E083E00E94770322
:1003500067E083E00E947B0382CFCF93C82F40E009
:1003600063E080E00E946C048FE99FE00197F1F761
:1003700000C0000041E062E080E00E946C048FE970
:100380009FE00197F1F700C000004C2F407150E052
:100390005595479555954795559547955595479545
:1003A00060E082E00E946C044C2F407250E0559552
:1003B0004795559547955595479555954795559525
:1003C000479561E082E00E946C044C2F407450E03D
:1003D000042E452F000C441F550B000C441F551FC5
:1003E00062E082E00E946C044C2F441F4427441FAB
:1003F00063E082E00E946C048FE99FE00197F1F7CF
:1004000000C0000040E062E080E00E946C048FE9E0
:100410009FE00197F1F700C0000041E062E080E05A
:100420000E946C048FE99FE00197F1F700C0000083
:100430004C2F417060E082E00E946C044C2F4270AF
:1004400050E05595479561E082E00E946C044C2F86
:10045000447050E0559547955595479562E082E088
:100460000E946C04C8704C2F50E0559547955595E7
:1004700047955595479563E082E00E946C048FE9AB
:100480009FE00197F1F700C0000040E062E080E0EB
:100490000E946C048FE99FE00197F1F700C0000013
:1004A000CF91089541E063E080E00E94FF0341E0C6
:1004B00062E080E00E94FF032FEF89EF90E021507F
:1004C00080409040E1F700C0000041E060E082E041
:1004D0000E94FF0341E061E082E00E94FF0341E0EF
:1004E00062E082E00E94FF0341E063E082E00E945C
:1004F000FF0383E30E94AD0182E30E94AD0188E225
:100500000E94AD0186E00E94AD018CE00E94AD0129
:1005100081E00E94AD010895CF93C82F41E063E0D0
:1005200080E00E946C048FE99FE00197F1F700C022
:10053000000041E062E080E00E946C048FE99FE0EF
:100540000197F1F700C000004C2F407150E0559525
:10055000479555954795559547955595479560E02D
:1005600082E00E946C044C2F407250E055954795F4
:100570005595479555954795559547955595479563
:1005800061E082E00E946C044C2F407450E0042E25
:10059000452F000C441F550B000C441F551F62E0F3
:1005A00082E00E946C044C2F441F4427441F63E0E8
:1005B00082E00E946C048FE99FE00197F1F700C090
:1005C000000040E062E080E00E946C048FE99FE060
:1005D0000197F1F700C0000041E062E080E00E9476
:1005E0006C048FE99FE00197F1F700C000004C2FE9
:1005F000417060E082E00E946C044C2F427050E039
:100600005595479561E082E00E946C044C2F447040
:1006100050E0559547955595479562E082E00E94D8
:100620006C04C8704C2F50E05595479555954795EB
:100630005595479563E082E00E946C048FE99FE046
:100640000197F1F700C0000040E062E080E00E9406
:100650006C048FE99FE00197F1F700C00000CF9193
:100660000895CF93DF93EC0103C00E948C02219682
:1006700088818111FACFDF91CF910895813031F0D7
:1006800070F0823031F0833039F00AC090E4960F78
:1006900007C090E1960F04C090E5960F01C0962F19
:1006A000892F80680E94AD010895CF93DF93CDB765
:1006B000DEB760970FB6F894DEBF0FBECDBF4AE03D
:1006C00050E0BE016F5F7F4F0E943607CE0101965A
:1006D0000E94310360960FB6F894DEBF0FBECDBF07
:1006E000DF91CF91089541E00E94FF03089541E01A
:1006F0000E946C04089540E00E946C04089541E05B
:1007000060E081E00E94FF0341E061E081E00E943F
:10071000FF0340E060E081E00E946C0440E061E0A3
:1007200081E00E946C040895CF93C82F862F0E9409
:100730005F06C13069F0C230B1F040E060E081E0B6
:100740000E946C0440E061E081E00E946C0415C0EE
:1007500041E060E081E00E946C0440E061E081E003
:100760000E946C040AC040E060E081E00E946C04DA
:1007700041E061E081E00E946C04CF91089586B170
:100780008F7786B987B1806487B987B18F7787B94A
:1007900087B18F7787B986B1816086B986B182606B
:1007A00086B986B1846086B986B1877F86B986B1FD
:1007B000806286B980B78F7D80BF80B7806480BF3C
:1007C00080B78F7780BF86B18F7B86B986B1806115
:1007D00086B986B1806886B9089527B197B1207E21
:1007E0008770822B982B97B9349BFECF84B195B13B
:1007F000FB019183808386B1806186B90895813041
:1008000001F130F08230B1F1833009F44CC0089529
:10081000413059F42AB381E090E002C0880F991F5B
:100820006A95E2F7822B8ABB08952AB381E090E0B3
:1008300002C0880F991F6A95E2F7809582238ABBD0
:100840000895413059F427B381E090E002C0880F49
:10085000991F6A95E2F7822B87BB089527B381E041
:1008600090E002C0880F991F6A95E2F78095822375
:1008700087BB0895413059F424B381E090E002C071
:10088000880F991F6A95E2F7822B84BB089524B3E1
:1008900081E090E002C0880F991F6A95E2F7809589
:1008A000822384BB0895413059F421B381E090E064
:1008B00002C0880F991F6A95E2F7822B81BB0895C9
:1008C00021B381E090E002C0880F991F6A95E2F79A
:1008D0008095822381BB0895813001F130F0823010
:1008E000B1F1833009F44CC00895413059F42BB371
:1008F00081E090E002C0880F991F6A95E2F7822B91
:100900008BBB08952BB381E090E002C0880F991F44
:100910006A95E2F7809582238BBB0895413059F4A4
:1009200028B381E090E002C0880F991F6A95E2F732
:10093000822B88BB089528B381E090E002C0880F25
:10094000991F6A95E2F78095822388BB089541300C
:1009500059F425B381E090E002C0880F991F6A9591
:10096000E2F7822B85BB089525B381E090E002C0B9
:10097000880F991F6A95E2F78095822385BB0895B9
:10098000413059F422B381E090E002C0880F991FF2
:100990006A95E2F7822B82BB089522B381E090E052
:1009A00002C0880F991F6A95E2F78095822382BB67
:1009B0000895813089F028F08230C9F0833011F138
:1009C0002CC089B390E002C0959587956A95E2F7AF
:1009D00080FF25C081E0089586B390E002C0959520
:1009E00087956A95E2F780FF1CC081E0089583B384
:1009F00090E002C0959587956A95E2F780FF13C055
:100A000081E0089580B390E002C0959587956A953E
:100A1000E2F780FF0AC081E0089580E0089580E059
:100A2000089580E0089580E0089580E00895CF93D0
:100A3000C62F813089F120F0823009F459C06CC092
:100A400040E062E083E00E94FF038BB780648BBFCD
:100A5000C13069F028F0C23089F0C330B1F05CC019
:100A600085B78E7F85BF85B78D7F85BF55C085B71C
:100A7000816085BF85B78D7F85BF4EC085B78E7F6E
:100A800085BF85B7826085BF47C085B7816085BF58
:100A900085B7826085BF40C040E063E083E00E948C
:100AA000FF038BB780688BBFC13069F028F0C2307C
:100AB00089F0C330B1F030C085B78B7F85BF85B773
:100AC000877F85BF29C085B7846085BF85B7877F4D
:100AD00085BF22C085B78B7F85BF85B7886085BFFE
:100AE0001BC085B7846085BF85B7886085BF14C08B
:100AF00040E062E081E00E94FF038BB780628BBF21
:100B0000C23019F0C33029F007C084B78F7B84BF8F
:100B100003C084B7806484BFCF910895813049F0C9
:100B200018F0823059F008957093A2006093A100EC
:100B300008957093A00060939F00089570939E00A5
:100B400060939D0008951F920F920FB60F9211248B
:100B50002F933F934F935F936F937F938F939F93C5
:100B6000AF93BF93EF93FF93E091A100F091A200A8
:100B70000995FF91EF91BF91AF919F918F917F91D7
:100B80006F915F914F913F912F910F900FBE0F90FA
:100B90001F9018951F920F920FB60F9211242F934A
:100BA0003F934F935F936F937F938F939F93AF93F5
:100BB000BF93EF93FF93E0919F00F091A000099500
:100BC000FF91EF91BF91AF919F918F917F916F9125
:100BD0005F914F913F912F910F900FBE0F901F90FB
:100BE00018951F920F920FB60F9211242F933F93D7
:100BF0004F935F936F937F938F939F93AF93BF9325
:100C0000EF93FF93E0919D00F0919E000995FF9175
:100C1000EF91BF91AF919F918F917F916F915F9174
:100C20004F913F912F910F900FBE0F901F901895ED
:100C30008FB780688FBF089541E064E081E00E9433
:100C4000FF0341E065E081E00E94FF0340E066E0D1
:100C500081E00E94FF0341E067E081E00E94FF0322
:100C60008DB180628DB98DB180618DB98DB1877F75
:100C70008DB98DB18B7F8DB98DB181608DB98EB1FC
:100C80008E7F8EB98DB180648DB908958FB9089526
:100C900083B7806483BF83B7886083BF83B78F7E49
:100CA00083BF83B7806283BF83B78E7F83BF83B7E1
:100CB000826083BF83B78B7F83BF12BE08958CBFD2
:100CC00008951F920F920FB60F9211242F933F9306
:100CD0004F935F936F937F938F939F93AF93BF9344
:100CE000EF93FF93E091A300F091A4000995FF9189
:100CF000EF91BF91AF919F918F917F916F915F9194
:100D00004F913F912F910F900FBE0F901F9018950C
:100D10001F920F920FB60F9211242F933F934F9370
:100D20005F936F937F938F939F93AF93BF93EF9353
:100D3000FF93E091A500F091A6000995FF91EF9136
:100D4000BF91AF919F918F917F916F915F914F91E3
:100D50003F912F910F900FBE0F901F90189587E62F
:100D600089B941E061E083E00E94FF0340E060E078
:100D700083E00E94FF038BB18D7F8BB98AB18061C4
:100D80008AB98AB188608AB98AB18B7F8AB986E8C4
:100D900080BD1BB88AB180688AB908955D9BFECF7B
:100DA0008CB98BB180628BB908952CB1FC01208382
:100DB00008959093A8008093A70008951F920F9222
:100DC0000FB60F9211242F933F934F935F936F931E
:100DD0007F938F939F93AF93BF93EF93FF93E09194
:100DE000A700F091A8000995FF91EF91BF91AF91F5
:100DF0009F918F917F916F915F914F913F912F9133
:100E00000F900FBE0F901F901895A1E21A2EAA1BEB
:100E1000BB1BFD010DC0AA1FBB1FEE1FFF1FA217AA
:100E2000B307E407F50720F0A21BB30BE40BF50BA7
:100E3000661F771F881F991F1A9469F76095709530
:100E4000809590959B01AC01BD01CF010895A29FB3
:100E5000B001B39FC001A39F700D811D1124911D8E
:100E6000B29F700D811D1124911D089545325105C9
:100E700020F4423010F00C944107FB011082CB01AA
:100E80000895BB274A3031F4992322F4BDE29095AE
:100E900081959F4F0C944D07BB27FB015527AA272F
:100EA000880F991FAA1FA41710F0A41B83955051F7
:100EB000B9F7A05DAA3308F0A95DA193009779F76F
:100EC000B111B1931192CB010C946607DC01FC01C6
:100ED000672F71917723E1F7329704C07C916D936E
:100EE00070836291AE17BF07C8F30895F894FFCFDF
:100EF000464C414D453A2020004741533A202000BE
:100F000054454D503A202020430044455445435415
:100F10004544004E4F20464C414D45004E4F204722
:060F2000415320200000F7
:00000001FF
